{
  "contractName": "CourseMarketplace",
  "abi": [
    {
      "inputs": [],
      "stateMutability": "nonpayable",
      "type": "constructor"
    },
    {
      "inputs": [],
      "name": "CourseHasOwner",
      "type": "error"
    },
    {
      "inputs": [],
      "name": "CourseIsNotCreated",
      "type": "error"
    },
    {
      "inputs": [],
      "name": "InvalidState",
      "type": "error"
    },
    {
      "inputs": [],
      "name": "OnlyOwner",
      "type": "error"
    },
    {
      "inputs": [],
      "name": "SenderIsNotCourseOwner",
      "type": "error"
    },
    {
      "inputs": [],
      "name": "isStopped",
      "outputs": [
        {
          "internalType": "bool",
          "name": "",
          "type": "bool"
        }
      ],
      "stateMutability": "view",
      "type": "function",
      "constant": true
    },
    {
      "stateMutability": "payable",
      "type": "receive",
      "payable": true
    },
    {
      "inputs": [
        {
          "internalType": "uint256",
          "name": "amount",
          "type": "uint256"
        }
      ],
      "name": "withdraw",
      "outputs": [],
      "stateMutability": "nonpayable",
      "type": "function"
    },
    {
      "inputs": [],
      "name": "emergencyWithdraw",
      "outputs": [],
      "stateMutability": "nonpayable",
      "type": "function"
    },
    {
      "inputs": [],
      "name": "selfDestruct",
      "outputs": [],
      "stateMutability": "nonpayable",
      "type": "function"
    },
    {
      "inputs": [],
      "name": "stopContract",
      "outputs": [],
      "stateMutability": "nonpayable",
      "type": "function"
    },
    {
      "inputs": [],
      "name": "resumeContract",
      "outputs": [],
      "stateMutability": "nonpayable",
      "type": "function"
    },
    {
      "inputs": [
        {
          "internalType": "bytes16",
          "name": "courseId",
          "type": "bytes16"
        },
        {
          "internalType": "bytes32",
          "name": "proof",
          "type": "bytes32"
        }
      ],
      "name": "purchaseCourse",
      "outputs": [],
      "stateMutability": "payable",
      "type": "function",
      "payable": true
    },
    {
      "inputs": [
        {
          "internalType": "bytes32",
          "name": "courseHash",
          "type": "bytes32"
        }
      ],
      "name": "repurchaseCourse",
      "outputs": [],
      "stateMutability": "payable",
      "type": "function",
      "payable": true
    },
    {
      "inputs": [
        {
          "internalType": "bytes32",
          "name": "courseHash",
          "type": "bytes32"
        }
      ],
      "name": "activateCourse",
      "outputs": [],
      "stateMutability": "nonpayable",
      "type": "function"
    },
    {
      "inputs": [
        {
          "internalType": "bytes32",
          "name": "courseHash",
          "type": "bytes32"
        }
      ],
      "name": "deactivateCourse",
      "outputs": [],
      "stateMutability": "nonpayable",
      "type": "function"
    },
    {
      "inputs": [
        {
          "internalType": "address",
          "name": "newOwner",
          "type": "address"
        }
      ],
      "name": "transferOwnership",
      "outputs": [],
      "stateMutability": "nonpayable",
      "type": "function"
    },
    {
      "inputs": [],
      "name": "getCourseCount",
      "outputs": [
        {
          "internalType": "uint256",
          "name": "",
          "type": "uint256"
        }
      ],
      "stateMutability": "view",
      "type": "function",
      "constant": true
    },
    {
      "inputs": [
        {
          "internalType": "uint256",
          "name": "index",
          "type": "uint256"
        }
      ],
      "name": "getCourseHashAtIndex",
      "outputs": [
        {
          "internalType": "bytes32",
          "name": "",
          "type": "bytes32"
        }
      ],
      "stateMutability": "view",
      "type": "function",
      "constant": true
    },
    {
      "inputs": [
        {
          "internalType": "bytes32",
          "name": "courseHash",
          "type": "bytes32"
        }
      ],
      "name": "getCourseByHash",
      "outputs": [
        {
          "components": [
            {
              "internalType": "uint256",
              "name": "id",
              "type": "uint256"
            },
            {
              "internalType": "uint256",
              "name": "price",
              "type": "uint256"
            },
            {
              "internalType": "bytes32",
              "name": "proof",
              "type": "bytes32"
            },
            {
              "internalType": "address",
              "name": "owner",
              "type": "address"
            },
            {
              "internalType": "enum CourseMarketplace.State",
              "name": "state",
              "type": "uint8"
            }
          ],
          "internalType": "struct CourseMarketplace.Course",
          "name": "",
          "type": "tuple"
        }
      ],
      "stateMutability": "view",
      "type": "function",
      "constant": true
    },
    {
      "inputs": [],
      "name": "getContractOwner",
      "outputs": [
        {
          "internalType": "address",
          "name": "",
          "type": "address"
        }
      ],
      "stateMutability": "view",
      "type": "function",
      "constant": true
    }
  ],
  "bytecode": "0x608060405260008060006101000a81548160ff02191690831515021790555034801561002a57600080fd5b5061003a3361003f60201b60201c565b610083565b80600460006101000a81548173ffffffffffffffffffffffffffffffffffffffff021916908373ffffffffffffffffffffffffffffffffffffffff16021790555050565b6119ee806100926000396000f3fe6080604052600436106100ec5760003560e01c80636d11290b1161008a578063c4bc5da511610059578063c4bc5da5146102b8578063d76821cb146102cf578063db2e21bc146102eb578063f2fde38b14610302576100f3565b80636d11290b14610210578063935d7e6d1461024d57806396cfda06146102765780639cb8a26a146102a1576100f3565b80633f683b6a116100c65780633f683b6a14610161578063442890d51461018c5780636136e1eb146101b757806362e4e6ac146101d3576100f3565b806312253a6c146100f85780632e1a7d4d1461010f5780633926257214610138576100f3565b366100f357005b600080fd5b34801561010457600080fd5b5061010d61032b565b005b34801561011b57600080fd5b50610136600480360381019061013191906114aa565b6103b3565b005b34801561014457600080fd5b5061015f600480360381019061015a9190611481565b6104f1565b005b34801561016d57600080fd5b506101766106dd565b60405161018391906116a6565b60405180910390f35b34801561019857600080fd5b506101a16106ee565b6040516101ae919061168b565b60405180910390f35b6101d160048036038101906101cc9190611481565b610718565b005b3480156101df57600080fd5b506101fa60048036038101906101f59190611481565b6108df565b604051610207919061171c565b60405180910390f35b34801561021c57600080fd5b50610237600480360381019061023291906114aa565b610a07565b60405161024491906116c1565b60405180910390f35b34801561025957600080fd5b50610274600480360381019061026f9190611481565b610a24565b005b34801561028257600080fd5b5061028b610cef565b6040516102989190611737565b60405180910390f35b3480156102ad57600080fd5b506102b6610cf9565b005b3480156102c457600080fd5b506102cd610db7565b005b6102e960048036038101906102e49190611445565b610e3f565b005b3480156102f757600080fd5b50610300611044565b005b34801561030e57600080fd5b506103296004803603810190610324919061141c565b6111af565b005b6103336106ee565b73ffffffffffffffffffffffffffffffffffffffff163373ffffffffffffffffffffffffffffffffffffffff1614610397576040517f5fc483c500000000000000000000000000000000000000000000000000000000815260040160405180910390fd5b60016000806101000a81548160ff021916908315150217905550565b6103bb6106ee565b73ffffffffffffffffffffffffffffffffffffffff163373ffffffffffffffffffffffffffffffffffffffff161461041f576040517f5fc483c500000000000000000000000000000000000000000000000000000000815260040160405180910390fd5b6000600460009054906101000a900473ffffffffffffffffffffffffffffffffffffffff1673ffffffffffffffffffffffffffffffffffffffff168260405161046790611676565b60006040518083038185875af1925050503d80600081146104a4576040519150601f19603f3d011682016040523d82523d6000602084013e6104a9565b606091505b50509050806104ed576040517f08c379a00000000000000000000000000000000000000000000000000000000081526004016104e4906116fc565b60405180910390fd5b5050565b60008054906101000a900460ff161561050957600080fd5b6105116106ee565b73ffffffffffffffffffffffffffffffffffffffff163373ffffffffffffffffffffffffffffffffffffffff1614610575576040517f5fc483c500000000000000000000000000000000000000000000000000000000815260040160405180910390fd5b61057e81611227565b6105b4576040517f4db0c48300000000000000000000000000000000000000000000000000000000815260040160405180910390fd5b600060016000838152602001908152602001600020905060006002811115610605577f4e487b7100000000000000000000000000000000000000000000000000000000600052602160045260246000fd5b8160030160149054906101000a900460ff16600281111561064f577f4e487b7100000000000000000000000000000000000000000000000000000000600052602160045260246000fd5b14610686576040517fbaf3f0f700000000000000000000000000000000000000000000000000000000815260040160405180910390fd5b60018160030160146101000a81548160ff021916908360028111156106d4577f4e487b7100000000000000000000000000000000000000000000000000000000600052602160045260246000fd5b02179055505050565b60008054906101000a900460ff1681565b6000600460009054906101000a900473ffffffffffffffffffffffffffffffffffffffff16905090565b60008054906101000a900460ff161561073057600080fd5b61073981611227565b61076f576040517f4db0c48300000000000000000000000000000000000000000000000000000000815260040160405180910390fd5b61077881611296565b6107ae576040517fcce31cc400000000000000000000000000000000000000000000000000000000815260040160405180910390fd5b60006001600083815260200190815260200160002090506002808111156107fe577f4e487b7100000000000000000000000000000000000000000000000000000000600052602160045260246000fd5b8160030160149054906101000a900460ff166002811115610848577f4e487b7100000000000000000000000000000000000000000000000000000000600052602160045260246000fd5b1461087f576040517fbaf3f0f700000000000000000000000000000000000000000000000000000000815260040160405180910390fd5b60008160030160146101000a81548160ff021916908360028111156108cd577f4e487b7100000000000000000000000000000000000000000000000000000000600052602160045260246000fd5b02179055503481600101819055505050565b6108e7611348565b600160008381526020019081526020016000206040518060a00160405290816000820154815260200160018201548152602001600282015481526020016003820160009054906101000a900473ffffffffffffffffffffffffffffffffffffffff1673ffffffffffffffffffffffffffffffffffffffff1673ffffffffffffffffffffffffffffffffffffffff1681526020016003820160149054906101000a900460ff1660028111156109c4577f4e487b7100000000000000000000000000000000000000000000000000000000600052602160045260246000fd5b60028111156109fc577f4e487b7100000000000000000000000000000000000000000000000000000000600052602160045260246000fd5b815250509050919050565b600060026000838152602001908152602001600020549050919050565b60008054906101000a900460ff1615610a3c57600080fd5b610a446106ee565b73ffffffffffffffffffffffffffffffffffffffff163373ffffffffffffffffffffffffffffffffffffffff1614610aa8576040517f5fc483c500000000000000000000000000000000000000000000000000000000815260040160405180910390fd5b610ab181611227565b610ae7576040517f4db0c48300000000000000000000000000000000000000000000000000000000815260040160405180910390fd5b600060016000838152602001908152602001600020905060006002811115610b38577f4e487b7100000000000000000000000000000000000000000000000000000000600052602160045260246000fd5b8160030160149054906101000a900460ff166002811115610b82577f4e487b7100000000000000000000000000000000000000000000000000000000600052602160045260246000fd5b14610bb9576040517fbaf3f0f700000000000000000000000000000000000000000000000000000000815260040160405180910390fd5b60008160030160009054906101000a900473ffffffffffffffffffffffffffffffffffffffff1673ffffffffffffffffffffffffffffffffffffffff168260010154604051610c0790611676565b60006040518083038185875af1925050503d8060008114610c44576040519150601f19603f3d011682016040523d82523d6000602084013e610c49565b606091505b5050905080610c8d576040517f08c379a0000000000000000000000000000000000000000000000000000000008152600401610c84906116dc565b60405180910390fd5b60028260030160146101000a81548160ff02191690836002811115610cdb577f4e487b7100000000000000000000000000000000000000000000000000000000600052602160045260246000fd5b021790555060008260010181905550505050565b6000600354905090565b60008054906101000a900460ff16610d1057600080fd5b610d186106ee565b73ffffffffffffffffffffffffffffffffffffffff163373ffffffffffffffffffffffffffffffffffffffff1614610d7c576040517f5fc483c500000000000000000000000000000000000000000000000000000000815260040160405180910390fd5b600460009054906101000a900473ffffffffffffffffffffffffffffffffffffffff1673ffffffffffffffffffffffffffffffffffffffff16ff5b610dbf6106ee565b73ffffffffffffffffffffffffffffffffffffffff163373ffffffffffffffffffffffffffffffffffffffff1614610e23576040517f5fc483c500000000000000000000000000000000000000000000000000000000815260040160405180910390fd5b60008060006101000a81548160ff021916908315150217905550565b60008054906101000a900460ff1615610e5757600080fd5b60008233604051602001610e6c92919061164a565b604051602081830303815290604052805190602001209050610e8d81611296565b15610ec4576040517fb0fc2d9700000000000000000000000000000000000000000000000000000000815260040160405180910390fd5b600060036000815480929190610ed990611811565b9190505590508160026000838152602001908152602001600020819055506040518060a001604052808281526020013481526020018481526020013373ffffffffffffffffffffffffffffffffffffffff16815260200160006002811115610f6a577f4e487b7100000000000000000000000000000000000000000000000000000000600052602160045260246000fd5b8152506001600084815260200190815260200160002060008201518160000155602082015181600101556040820151816002015560608201518160030160006101000a81548173ffffffffffffffffffffffffffffffffffffffff021916908373ffffffffffffffffffffffffffffffffffffffff16021790555060808201518160030160146101000a81548160ff02191690836002811115611036577f4e487b7100000000000000000000000000000000000000000000000000000000600052602160045260246000fd5b021790555090505050505050565b60008054906101000a900460ff1661105b57600080fd5b6110636106ee565b73ffffffffffffffffffffffffffffffffffffffff163373ffffffffffffffffffffffffffffffffffffffff16146110c7576040517f5fc483c500000000000000000000000000000000000000000000000000000000815260040160405180910390fd5b6000600460009054906101000a900473ffffffffffffffffffffffffffffffffffffffff1673ffffffffffffffffffffffffffffffffffffffff163073ffffffffffffffffffffffffffffffffffffffff163160405161112690611676565b60006040518083038185875af1925050503d8060008114611163576040519150601f19603f3d011682016040523d82523d6000602084013e611168565b606091505b50509050806111ac576040517f08c379a00000000000000000000000000000000000000000000000000000000081526004016111a3906116fc565b60405180910390fd5b50565b6111b76106ee565b73ffffffffffffffffffffffffffffffffffffffff163373ffffffffffffffffffffffffffffffffffffffff161461121b576040517f5fc483c500000000000000000000000000000000000000000000000000000000815260040160405180910390fd5b61122481611304565b50565b60008073ffffffffffffffffffffffffffffffffffffffff166001600084815260200190815260200160002060030160009054906101000a900473ffffffffffffffffffffffffffffffffffffffff1673ffffffffffffffffffffffffffffffffffffffff1614159050919050565b60003373ffffffffffffffffffffffffffffffffffffffff166001600084815260200190815260200160002060030160009054906101000a900473ffffffffffffffffffffffffffffffffffffffff1673ffffffffffffffffffffffffffffffffffffffff16149050919050565b80600460006101000a81548173ffffffffffffffffffffffffffffffffffffffff021916908373ffffffffffffffffffffffffffffffffffffffff16021790555050565b6040518060a00160405280600081526020016000815260200160008019168152602001600073ffffffffffffffffffffffffffffffffffffffff168152602001600060028111156113c2577f4e487b7100000000000000000000000000000000000000000000000000000000600052602160045260246000fd5b81525090565b6000813590506113d78161195c565b92915050565b6000813590506113ec81611973565b92915050565b6000813590506114018161198a565b92915050565b600081359050611416816119a1565b92915050565b60006020828403121561142e57600080fd5b600061143c848285016113c8565b91505092915050565b6000806040838503121561145857600080fd5b6000611466858286016113dd565b9250506020611477858286016113f2565b9150509250929050565b60006020828403121561149357600080fd5b60006114a1848285016113f2565b91505092915050565b6000602082840312156114bc57600080fd5b60006114ca84828501611407565b91505092915050565b6114dc8161176e565b82525050565b6114eb8161176e565b82525050565b6115026114fd8261176e565b61185a565b82525050565b61151181611780565b82525050565b6115286115238261178c565b61186c565b82525050565b611537816117b8565b82525050565b611546816117b8565b82525050565b611555816117ff565b82525050565b600061156860108361175d565b9150611573826118f3565b602082019050919050565b600061158b600083611752565b91506115968261191c565b600082019050919050565b60006115ae60108361175d565b91506115b98261191f565b602082019050919050565b60a0820160008201516115da600085018261162c565b5060208201516115ed602085018261162c565b506040820151611600604085018261152e565b50606082015161161360608501826114d3565b506080820151611626608085018261154c565b50505050565b611635816117f5565b82525050565b611644816117f5565b82525050565b60006116568285611517565b60108201915061166682846114f1565b6014820191508190509392505050565b60006116818261157e565b9150819050919050565b60006020820190506116a060008301846114e2565b92915050565b60006020820190506116bb6000830184611508565b92915050565b60006020820190506116d6600083018461153d565b92915050565b600060208201905081810360008301526116f58161155b565b9050919050565b60006020820190508181036000830152611715816115a1565b9050919050565b600060a08201905061173160008301846115c4565b92915050565b600060208201905061174c600083018461163b565b92915050565b600081905092915050565b600082825260208201905092915050565b6000611779826117d5565b9050919050565b60008115159050919050565b60007fffffffffffffffffffffffffffffffff0000000000000000000000000000000082169050919050565b6000819050919050565b60008190506117d082611948565b919050565b600073ffffffffffffffffffffffffffffffffffffffff82169050919050565b6000819050919050565b600061180a826117c2565b9050919050565b600061181c826117f5565b91507fffffffffffffffffffffffffffffffffffffffffffffffffffffffffffffffff82141561184f5761184e611888565b5b600182019050919050565b600061186582611876565b9050919050565b6000819050919050565b6000611881826118e6565b9050919050565b7f4e487b7100000000000000000000000000000000000000000000000000000000600052601160045260246000fd5b7f4e487b7100000000000000000000000000000000000000000000000000000000600052602160045260246000fd5b60008160601b9050919050565b7f5472616e73666572206661696c65642100000000000000000000000000000000600082015250565b50565b7f5472616e73666572206661696c65642e00000000000000000000000000000000600082015250565b60038110611959576119586118b7565b5b50565b6119658161176e565b811461197057600080fd5b50565b61197c8161178c565b811461198757600080fd5b50565b611993816117b8565b811461199e57600080fd5b50565b6119aa816117f5565b81146119b557600080fd5b5056fea2646970667358221220456352dfad6ccdc6839d4d5bb5bb75fa86b8351e75fc9427ff97f7b80e846aaf64736f6c63430008040033",
  "immutableReferences": {},
  "source": "// SPDX-License-Identifier: MIT\npragma solidity >=0.4.22 <0.9.0;\n\ncontract CourseMarketplace {\n    enum State {\n        Purchased,\n        Activated,\n        Deactivated\n    }\n\n    struct Course {\n        uint256 id; // 32\n        uint256 price; // 32\n        bytes32 proof; // 32\n        address owner; // 20\n        State state; // 1\n    }\n\n    bool public isStopped = false;\n\n    // mapping of courseHash to Course data\n    mapping(bytes32 => Course) private ownedCourses;\n\n    // mapping of courseID to courseHash\n    mapping(uint256 => bytes32) private ownedCourseHash;\n\n    // number of all courses + id of the course\n    uint256 private totalOwnedCourses;\n\n    address payable private owner;\n\n    constructor() {\n        setContractOwner(msg.sender);\n    }\n\n    /// Course has invalid state!\n    error InvalidState();\n\n    /// Course is not created!\n    error CourseIsNotCreated();\n\n    /// Course has already a Owner!\n    error CourseHasOwner();\n\n    /// Sender is not course owner!\n    error SenderIsNotCourseOwner();\n\n    /// Only owner has an access!\n    error OnlyOwner();\n\n    modifier onlyOwner() {\n        if (msg.sender != getContractOwner()) {\n            revert OnlyOwner();\n        }\n        _;\n    }\n\n    modifier onlyWhenNotStopped() {\n        require(!isStopped);\n        _;\n    }\n\n    modifier onlyWhenStopped() {\n        require(isStopped);\n        _;\n    }\n\n    receive() external payable {}\n\n    function withdraw(uint256 amount) external onlyOwner {\n        (bool success, ) = owner.call{value: amount}(\"\");\n        require(success, \"Transfer failed.\");\n    }\n\n    function emergencyWithdraw() external onlyWhenStopped onlyOwner {\n        (bool success, ) = owner.call{value: payable(address(this)).balance}(\n            \"\"\n        );\n        require(success, \"Transfer failed.\");\n    }\n\n    function selfDestruct() external onlyWhenStopped onlyOwner {\n        selfdestruct(owner);\n    }\n\n    function stopContract() external onlyOwner {\n        isStopped = true;\n    }\n\n    function resumeContract() external onlyOwner {\n        isStopped = false;\n    }\n\n    function purchaseCourse(\n        bytes16 courseId, // 0x00000000000000000000000000003130\n        bytes32 proof // 0x0000000000000000000000000000313000000000000000000000000000003130\n    ) external payable onlyWhenNotStopped {\n        bytes32 courseHash = keccak256(abi.encodePacked(courseId, msg.sender));\n\n        if (hasCourseOwnership(courseHash)) {\n            revert CourseHasOwner();\n        }\n\n        uint256 id = totalOwnedCourses++;\n\n        ownedCourseHash[id] = courseHash;\n        ownedCourses[courseHash] = Course({\n            id: id,\n            price: msg.value,\n            proof: proof,\n            owner: msg.sender,\n            state: State.Purchased\n        });\n    }\n\n    function repurchaseCourse(bytes32 courseHash)\n        external\n        payable\n        onlyWhenNotStopped\n    {\n        if (!isCourseCreated(courseHash)) {\n            revert CourseIsNotCreated();\n        }\n\n        if (!hasCourseOwnership(courseHash)) {\n            revert SenderIsNotCourseOwner();\n        }\n\n        Course storage course = ownedCourses[courseHash];\n\n        if (course.state != State.Deactivated) {\n            revert InvalidState();\n        }\n\n        course.state = State.Purchased;\n        course.price = msg.value;\n    }\n\n    function activateCourse(bytes32 courseHash)\n        external\n        onlyWhenNotStopped\n        onlyOwner\n    {\n        if (!isCourseCreated(courseHash)) {\n            revert CourseIsNotCreated();\n        }\n\n        Course storage course = ownedCourses[courseHash];\n\n        if (course.state != State.Purchased) {\n            revert InvalidState();\n        }\n\n        course.state = State.Activated;\n    }\n\n    function deactivateCourse(bytes32 courseHash)\n        external\n        onlyWhenNotStopped\n        onlyOwner\n    {\n        if (!isCourseCreated(courseHash)) {\n            revert CourseIsNotCreated();\n        }\n\n        Course storage course = ownedCourses[courseHash];\n\n        if (course.state != State.Purchased) {\n            revert InvalidState();\n        }\n\n        (bool success, ) = course.owner.call{value: course.price}(\"\");\n        require(success, \"Transfer failed!\");\n\n        course.state = State.Deactivated;\n        course.price = 0;\n    }\n\n    function transferOwnership(address newOwner) external onlyOwner {\n        setContractOwner(newOwner);\n    }\n\n    function getCourseCount() external view returns (uint256) {\n        return totalOwnedCourses;\n    }\n\n    function getCourseHashAtIndex(uint256 index)\n        external\n        view\n        returns (bytes32)\n    {\n        return ownedCourseHash[index];\n    }\n\n    function getCourseByHash(bytes32 courseHash)\n        external\n        view\n        returns (Course memory)\n    {\n        return ownedCourses[courseHash];\n    }\n\n    function getContractOwner() public view returns (address) {\n        return owner;\n    }\n\n    function setContractOwner(address newOwner) private {\n        owner = payable(newOwner);\n    }\n\n    function isCourseCreated(bytes32 courseHash) private view returns (bool) {\n        return\n            ownedCourses[courseHash].owner !=\n            0x0000000000000000000000000000000000000000;\n    }\n\n    function hasCourseOwnership(bytes32 courseHash)\n        private\n        view\n        returns (bool)\n    {\n        return ownedCourses[courseHash].owner == msg.sender;\n    }\n}\n",
  "sourcePath": "/mnt/sdc3/parsh/static/react/blockchain/marketplace-eth/contracts/CourseMarketplace.sol",
  "compiler": {
    "name": "solc",
    "version": "0.8.4+commit.c7e474f2.Emscripten.clang"
  },
  "schemaVersion": "3.4.4",
  "updatedAt": "2022-03-27T13:20:34.907Z",
  "networkType": "ethereum",
  "devdoc": {
    "kind": "dev",
    "methods": {},
    "version": 1
  },
  "userdoc": {
    "errors": {
      "CourseHasOwner()": [
        {
          "notice": "Course has already a Owner!"
        }
      ],
      "CourseIsNotCreated()": [
        {
          "notice": "Course is not created!"
        }
      ],
      "InvalidState()": [
        {
          "notice": "Course has invalid state!"
        }
      ],
      "OnlyOwner()": [
        {
          "notice": "Only owner has an access!"
        }
      ],
      "SenderIsNotCourseOwner()": [
        {
          "notice": "Sender is not course owner!"
        }
      ]
    },
    "kind": "user",
    "methods": {},
    "version": 1
  }
}